{
  "contractName": "SolnSquareVerifier",
  "abi": [
    {
      "inputs": [
        {
          "internalType": "string",
          "name": "name",
          "type": "string"
        },
        {
          "internalType": "string",
          "name": "symbol",
          "type": "string"
        },
        {
          "internalType": "address",
          "name": "verifierAddress",
          "type": "address"
        }
      ],
      "payable": false,
      "stateMutability": "nonpayable",
      "type": "constructor"
    },
    {
      "anonymous": false,
      "inputs": [
        {
          "indexed": true,
          "internalType": "address",
          "name": "to",
          "type": "address"
        },
        {
          "indexed": true,
          "internalType": "uint256",
          "name": "tokenId",
          "type": "uint256"
        },
        {
          "indexed": true,
          "internalType": "bytes4",
          "name": "key",
          "type": "bytes4"
        }
      ],
      "name": "AddedToSolutions",
      "type": "event"
    },
    {
      "anonymous": false,
      "inputs": [
        {
          "indexed": true,
          "internalType": "address",
          "name": "owner",
          "type": "address"
        },
        {
          "indexed": true,
          "internalType": "address",
          "name": "approved",
          "type": "address"
        },
        {
          "indexed": true,
          "internalType": "uint256",
          "name": "tokenId",
          "type": "uint256"
        }
      ],
      "name": "Approval",
      "type": "event"
    },
    {
      "anonymous": false,
      "inputs": [
        {
          "indexed": true,
          "internalType": "address",
          "name": "owner",
          "type": "address"
        },
        {
          "indexed": true,
          "internalType": "address",
          "name": "operator",
          "type": "address"
        },
        {
          "indexed": false,
          "internalType": "bool",
          "name": "approved",
          "type": "bool"
        }
      ],
      "name": "ApprovalForAll",
      "type": "event"
    },
    {
      "anonymous": false,
      "inputs": [
        {
          "indexed": false,
          "internalType": "address",
          "name": "owner",
          "type": "address"
        }
      ],
      "name": "Paused",
      "type": "event"
    },
    {
      "anonymous": false,
      "inputs": [
        {
          "indexed": true,
          "internalType": "address",
          "name": "from",
          "type": "address"
        },
        {
          "indexed": true,
          "internalType": "address",
          "name": "to",
          "type": "address"
        },
        {
          "indexed": true,
          "internalType": "uint256",
          "name": "tokenId",
          "type": "uint256"
        }
      ],
      "name": "Transfer",
      "type": "event"
    },
    {
      "anonymous": false,
      "inputs": [
        {
          "indexed": false,
          "internalType": "address",
          "name": "owner",
          "type": "address"
        }
      ],
      "name": "ownershipChanged",
      "type": "event"
    },
    {
      "anonymous": false,
      "inputs": [
        {
          "indexed": false,
          "internalType": "address",
          "name": "owner",
          "type": "address"
        }
      ],
      "name": "unPaused",
      "type": "event"
    },
    {
      "constant": true,
      "inputs": [
        {
          "internalType": "bytes32",
          "name": "_myid",
          "type": "bytes32"
        },
        {
          "internalType": "string",
          "name": "_result",
          "type": "string"
        }
      ],
      "name": "__callback",
      "outputs": [],
      "payable": false,
      "stateMutability": "pure",
      "type": "function"
    },
    {
      "constant": true,
      "inputs": [
        {
          "internalType": "bytes32",
          "name": "_myid",
          "type": "bytes32"
        },
        {
          "internalType": "string",
          "name": "_result",
          "type": "string"
        },
        {
          "internalType": "bytes",
          "name": "_proof",
          "type": "bytes"
        }
      ],
      "name": "__callback",
      "outputs": [],
      "payable": false,
      "stateMutability": "pure",
      "type": "function"
    },
    {
      "constant": false,
      "inputs": [
        {
          "internalType": "address",
          "name": "to",
          "type": "address"
        },
        {
          "internalType": "uint256",
          "name": "tokenId",
          "type": "uint256"
        }
      ],
      "name": "approve",
      "outputs": [],
      "payable": false,
      "stateMutability": "nonpayable",
      "type": "function"
    },
    {
      "constant": true,
      "inputs": [
        {
          "internalType": "address",
          "name": "owner",
          "type": "address"
        }
      ],
      "name": "balanceOf",
      "outputs": [
        {
          "internalType": "uint256",
          "name": "",
          "type": "uint256"
        }
      ],
      "payable": false,
      "stateMutability": "view",
      "type": "function"
    },
    {
      "constant": true,
      "inputs": [],
      "name": "baseTokenURI",
      "outputs": [
        {
          "internalType": "string",
          "name": "",
          "type": "string"
        }
      ],
      "payable": false,
      "stateMutability": "view",
      "type": "function"
    },
    {
      "constant": false,
      "inputs": [
        {
          "internalType": "bool",
          "name": "status",
          "type": "bool"
        }
      ],
      "name": "changePauseStatus",
      "outputs": [],
      "payable": false,
      "stateMutability": "nonpayable",
      "type": "function"
    },
    {
      "constant": true,
      "inputs": [
        {
          "internalType": "uint256",
          "name": "tokenId",
          "type": "uint256"
        }
      ],
      "name": "getApproved",
      "outputs": [
        {
          "internalType": "address",
          "name": "",
          "type": "address"
        }
      ],
      "payable": false,
      "stateMutability": "view",
      "type": "function"
    },
    {
      "constant": true,
      "inputs": [],
      "name": "getOwner",
      "outputs": [
        {
          "internalType": "address",
          "name": "",
          "type": "address"
        }
      ],
      "payable": false,
      "stateMutability": "view",
      "type": "function"
    },
    {
      "constant": true,
      "inputs": [
        {
          "internalType": "uint256",
          "name": "tokenId",
          "type": "uint256"
        }
      ],
      "name": "gettokenURI",
      "outputs": [
        {
          "internalType": "string",
          "name": "",
          "type": "string"
        }
      ],
      "payable": false,
      "stateMutability": "view",
      "type": "function"
    },
    {
      "constant": true,
      "inputs": [
        {
          "internalType": "address",
          "name": "owner",
          "type": "address"
        },
        {
          "internalType": "address",
          "name": "operator",
          "type": "address"
        }
      ],
      "name": "isApprovedForAll",
      "outputs": [
        {
          "internalType": "bool",
          "name": "",
          "type": "bool"
        }
      ],
      "payable": false,
      "stateMutability": "view",
      "type": "function"
    },
    {
      "constant": false,
      "inputs": [
        {
          "internalType": "address",
          "name": "to",
          "type": "address"
        },
        {
          "internalType": "uint256",
          "name": "tokenId",
          "type": "uint256"
        }
      ],
      "name": "mint",
      "outputs": [
        {
          "internalType": "bool",
          "name": "",
          "type": "bool"
        }
      ],
      "payable": false,
      "stateMutability": "nonpayable",
      "type": "function"
    },
    {
      "constant": true,
      "inputs": [],
      "name": "name",
      "outputs": [
        {
          "internalType": "string",
          "name": "",
          "type": "string"
        }
      ],
      "payable": false,
      "stateMutability": "view",
      "type": "function"
    },
    {
      "constant": true,
      "inputs": [
        {
          "internalType": "uint256",
          "name": "tokenId",
          "type": "uint256"
        }
      ],
      "name": "ownerOf",
      "outputs": [
        {
          "internalType": "address",
          "name": "",
          "type": "address"
        }
      ],
      "payable": false,
      "stateMutability": "view",
      "type": "function"
    },
    {
      "constant": false,
      "inputs": [
        {
          "internalType": "address",
          "name": "from",
          "type": "address"
        },
        {
          "internalType": "address",
          "name": "to",
          "type": "address"
        },
        {
          "internalType": "uint256",
          "name": "tokenId",
          "type": "uint256"
        }
      ],
      "name": "safeTransferFrom",
      "outputs": [],
      "payable": false,
      "stateMutability": "nonpayable",
      "type": "function"
    },
    {
      "constant": false,
      "inputs": [
        {
          "internalType": "address",
          "name": "from",
          "type": "address"
        },
        {
          "internalType": "address",
          "name": "to",
          "type": "address"
        },
        {
          "internalType": "uint256",
          "name": "tokenId",
          "type": "uint256"
        },
        {
          "internalType": "bytes",
          "name": "_data",
          "type": "bytes"
        }
      ],
      "name": "safeTransferFrom",
      "outputs": [],
      "payable": false,
      "stateMutability": "nonpayable",
      "type": "function"
    },
    {
      "constant": false,
      "inputs": [
        {
          "internalType": "address",
          "name": "to",
          "type": "address"
        },
        {
          "internalType": "bool",
          "name": "approved",
          "type": "bool"
        }
      ],
      "name": "setApprovalForAll",
      "outputs": [],
      "payable": false,
      "stateMutability": "nonpayable",
      "type": "function"
    },
    {
      "constant": true,
      "inputs": [
        {
          "internalType": "bytes4",
          "name": "interfaceId",
          "type": "bytes4"
        }
      ],
      "name": "supportsInterface",
      "outputs": [
        {
          "internalType": "bool",
          "name": "",
          "type": "bool"
        }
      ],
      "payable": false,
      "stateMutability": "view",
      "type": "function"
    },
    {
      "constant": true,
      "inputs": [],
      "name": "symbol",
      "outputs": [
        {
          "internalType": "string",
          "name": "",
          "type": "string"
        }
      ],
      "payable": false,
      "stateMutability": "view",
      "type": "function"
    },
    {
      "constant": true,
      "inputs": [
        {
          "internalType": "uint256",
          "name": "index",
          "type": "uint256"
        }
      ],
      "name": "tokenByIndex",
      "outputs": [
        {
          "internalType": "uint256",
          "name": "",
          "type": "uint256"
        }
      ],
      "payable": false,
      "stateMutability": "view",
      "type": "function"
    },
    {
      "constant": true,
      "inputs": [
        {
          "internalType": "address",
          "name": "owner",
          "type": "address"
        },
        {
          "internalType": "uint256",
          "name": "index",
          "type": "uint256"
        }
      ],
      "name": "tokenOfOwnerByIndex",
      "outputs": [
        {
          "internalType": "uint256",
          "name": "",
          "type": "uint256"
        }
      ],
      "payable": false,
      "stateMutability": "view",
      "type": "function"
    },
    {
      "constant": true,
      "inputs": [],
      "name": "totalSupply",
      "outputs": [
        {
          "internalType": "uint256",
          "name": "",
          "type": "uint256"
        }
      ],
      "payable": false,
      "stateMutability": "view",
      "type": "function"
    },
    {
      "constant": false,
      "inputs": [
        {
          "internalType": "address",
          "name": "from",
          "type": "address"
        },
        {
          "internalType": "address",
          "name": "to",
          "type": "address"
        },
        {
          "internalType": "uint256",
          "name": "tokenId",
          "type": "uint256"
        }
      ],
      "name": "transferFrom",
      "outputs": [],
      "payable": false,
      "stateMutability": "nonpayable",
      "type": "function"
    },
    {
      "constant": false,
      "inputs": [
        {
          "internalType": "address",
          "name": "newOwner",
          "type": "address"
        }
      ],
      "name": "transferOwnership",
      "outputs": [],
      "payable": false,
      "stateMutability": "nonpayable",
      "type": "function"
    },
    {
      "constant": false,
      "inputs": [
        {
          "internalType": "address",
          "name": "to",
          "type": "address"
        },
        {
          "internalType": "uint256",
          "name": "tokenId",
          "type": "uint256"
        },
        {
          "components": [
            {
              "components": [
                {
                  "internalType": "uint256",
                  "name": "X",
                  "type": "uint256"
                },
                {
                  "internalType": "uint256",
                  "name": "Y",
                  "type": "uint256"
                }
              ],
              "internalType": "struct Pairing.G1Point",
              "name": "a",
              "type": "tuple"
            },
            {
              "components": [
                {
                  "internalType": "uint256",
                  "name": "X",
                  "type": "uint256"
                },
                {
                  "internalType": "uint256",
                  "name": "Y",
                  "type": "uint256"
                }
              ],
              "internalType": "struct Pairing.G1Point",
              "name": "a_p",
              "type": "tuple"
            },
            {
              "components": [
                {
                  "internalType": "uint256[2]",
                  "name": "X",
                  "type": "uint256[2]"
                },
                {
                  "internalType": "uint256[2]",
                  "name": "Y",
                  "type": "uint256[2]"
                }
              ],
              "internalType": "struct Pairing.G2Point",
              "name": "b",
              "type": "tuple"
            },
            {
              "components": [
                {
                  "internalType": "uint256",
                  "name": "X",
                  "type": "uint256"
                },
                {
                  "internalType": "uint256",
                  "name": "Y",
                  "type": "uint256"
                }
              ],
              "internalType": "struct Pairing.G1Point",
              "name": "b_p",
              "type": "tuple"
            },
            {
              "components": [
                {
                  "internalType": "uint256",
                  "name": "X",
                  "type": "uint256"
                },
                {
                  "internalType": "uint256",
                  "name": "Y",
                  "type": "uint256"
                }
              ],
              "internalType": "struct Pairing.G1Point",
              "name": "c",
              "type": "tuple"
            },
            {
              "components": [
                {
                  "internalType": "uint256",
                  "name": "X",
                  "type": "uint256"
                },
                {
                  "internalType": "uint256",
                  "name": "Y",
                  "type": "uint256"
                }
              ],
              "internalType": "struct Pairing.G1Point",
              "name": "c_p",
              "type": "tuple"
            },
            {
              "components": [
                {
                  "internalType": "uint256",
                  "name": "X",
                  "type": "uint256"
                },
                {
                  "internalType": "uint256",
                  "name": "Y",
                  "type": "uint256"
                }
              ],
              "internalType": "struct Pairing.G1Point",
              "name": "h",
              "type": "tuple"
            },
            {
              "components": [
                {
                  "internalType": "uint256",
                  "name": "X",
                  "type": "uint256"
                },
                {
                  "internalType": "uint256",
                  "name": "Y",
                  "type": "uint256"
                }
              ],
              "internalType": "struct Pairing.G1Point",
              "name": "k",
              "type": "tuple"
            }
          ],
          "internalType": "struct Verifier.Proof",
          "name": "proof",
          "type": "tuple"
        },
        {
          "internalType": "uint256[2]",
          "name": "input",
          "type": "uint256[2]"
        }
      ],
      "name": "mintRET",
      "outputs": [],
      "payable": false,
      "stateMutability": "nonpayable",
      "type": "function"
    }
  ],
  "bytecode": "0x60806040523480156200001157600080fd5b506040516200477e3803806200477e8339818101604052620000379190810190620003fd565b828281816040518060600160405280603f81526020016200473f603f9139336000806101000a81548173ffffffffffffffffffffffffffffffffffffffff021916908373ffffffffffffffffffffffffffffffffffffffff1602179055507f3f3bc0d25569b73b8f83a7aa1967d8934d14a8236ef400ce36406a2d5cd61dd66000809054906101000a900473ffffffffffffffffffffffffffffffffffffffff16604051620000e79190620004d8565b60405180910390a160008060146101000a81548160ff021916908315150217905550620001216301ffc9a760e01b6200020360201b60201c565b620001396380ac58cd60e01b6200020360201b60201c565b6200015163780e9d6360e01b6200020360201b60201c565b82600f908051906020019062000169929190620002db565b50816010908051906020019062000182929190620002db565b5080601190805190602001906200019b929190620002db565b50620001b4635b5e139f60e01b6200020360201b60201c565b505050505080601360006101000a81548173ffffffffffffffffffffffffffffffffffffffff021916908373ffffffffffffffffffffffffffffffffffffffff16021790555050505062000607565b63ffffffff60e01b817bffffffffffffffffffffffffffffffffffffffffffffffffffffffff191614156200026f576040517f08c379a00000000000000000000000000000000000000000000000000000000081526004016200026690620004f5565b60405180910390fd5b6001806000837bffffffffffffffffffffffffffffffffffffffffffffffffffffffff19167bffffffffffffffffffffffffffffffffffffffffffffffffffffffff1916815260200190815260200160002060006101000a81548160ff02191690831515021790555050565b828054600181600116156101000203166002900490600052602060002090601f016020900481019282601f106200031e57805160ff19168380011785556200034f565b828001600101855582156200034f579182015b828111156200034e57825182559160200191906001019062000331565b5b5090506200035e919062000362565b5090565b6200038791905b808211156200038357600081600090555060010162000369565b5090565b90565b6000815190506200039b81620005ed565b92915050565b600082601f830112620003b357600080fd5b8151620003ca620003c48262000545565b62000517565b91508082526020830160208301858383011115620003e757600080fd5b620003f4838284620005b7565b50505092915050565b6000806000606084860312156200041357600080fd5b600084015167ffffffffffffffff8111156200042e57600080fd5b6200043c86828701620003a1565b935050602084015167ffffffffffffffff8111156200045a57600080fd5b6200046886828701620003a1565b92505060406200047b868287016200038a565b9150509250925092565b620004908162000583565b82525050565b6000620004a560168362000572565b91507f496e74657266616365206964206e6f742076616c6964000000000000000000006000830152602082019050919050565b6000602082019050620004ef600083018462000485565b92915050565b60006020820190508181036000830152620005108162000496565b9050919050565b6000604051905081810181811067ffffffffffffffff821117156200053b57600080fd5b8060405250919050565b600067ffffffffffffffff8211156200055d57600080fd5b601f19601f8301169050602081019050919050565b600082825260208201905092915050565b6000620005908262000597565b9050919050565b600073ffffffffffffffffffffffffffffffffffffffff82169050919050565b60005b83811015620005d7578082015181840152602081019050620005ba565b83811115620005e7576000848401525b50505050565b620005f88162000583565b81146200060457600080fd5b50565b61412880620006176000396000f3fe608060405234801561001057600080fd5b50600436106101585760003560e01c80634f6ccce7116100c3578063b88d4fde1161007c578063b88d4fde146103e9578063d547cfb714610405578063e985e9c514610423578063eff5e57014610453578063f2fde38b1461046f578063f3f0cd7f1461048b57610158565b80634f6ccce7146103015780636352211e1461033157806370a0823114610361578063893d20e81461039157806395d89b41146103af578063a22cb465146103cd57610158565b806327dc297e1161011557806327dc297e146102315780632f745c591461024d5780633424b8ce1461027d57806338bbfa501461029957806340c10f19146102b557806342842e0e146102e557610158565b806301ffc9a71461015d57806306fdde031461018d578063081812fc146101ab578063095ea7b3146101db57806318160ddd146101f757806323b872dd14610215575b600080fd5b61017760048036036101729190810190613086565b6104bb565b6040516101849190613b18565b60405180910390f35b610195610523565b6040516101a29190613b33565b60405180910390f35b6101c560048036036101c091908101906130d8565b6105c5565b6040516101d29190613a96565b60405180910390f35b6101f560048036036101f09190810190612ec0565b610677565b005b6101ff6108d6565b60405161020c9190613de0565b60405180910390f35b61022f600480360361022a9190810190612dba565b6108e3565b005b61024b60048036036102469190810190612fb3565b61093c565b005b61026760048036036102629190810190612ec0565b61097f565b6040516102749190613de0565b60405180910390f35b61029760048036036102929190810190612f61565b610a28565b005b6102b360048036036102ae9190810190613007565b610bb3565b005b6102cf60048036036102ca9190810190612ec0565b610bb8565b6040516102dc9190613b18565b60405180910390f35b6102ff60048036036102fa9190810190612dba565b610c66565b005b61031b600480360361031691908101906130d8565b610c86565b6040516103289190613de0565b60405180910390f35b61034b600480360361034691908101906130d8565b610cf0565b6040516103589190613a96565b60405180910390f35b61037b60048036036103769190810190612d2c565b610d2d565b6040516103889190613de0565b60405180910390f35b610399610d7d565b6040516103a69190613a96565b60405180910390f35b6103b7610da6565b6040516103c49190613b33565b60405180910390f35b6103e760048036036103e29190810190612e84565b610e48565b005b61040360048036036103fe9190810190612e09565b610fb4565b005b61040d611010565b60405161041a9190613b33565b60405180910390f35b61043d60048036036104389190810190612d7e565b6110b2565b60405161044a9190613b18565b60405180910390f35b61046d60048036036104689190810190612efc565b611146565b005b61048960048036036104849190810190612d2c565b611403565b005b6104a560048036036104a091908101906130d8565b61159d565b6040516104b29190613b33565b60405180910390f35b600060016000837bffffffffffffffffffffffffffffffffffffffffffffffffffffffff19167bffffffffffffffffffffffffffffffffffffffffffffffffffffffff1916815260200190815260200160002060009054906101000a900460ff169050919050565b6060600f8054600181600116156101000203166002900480601f0160208091040260200160405190810160405280929190818152602001828054600181600116156101000203166002900480156105bb5780601f10610590576101008083540402835291602001916105bb565b820191906000526020600020905b81548152906001019060200180831161059e57829003601f168201915b5050505050905090565b6000806002600084815260200190815260200160002060009054906101000a900473ffffffffffffffffffffffffffffffffffffffff169050600073ffffffffffffffffffffffffffffffffffffffff168173ffffffffffffffffffffffffffffffffffffffff16141561066e576040517f08c379a000000000000000000000000000000000000000000000000000000000815260040161066590613bd5565b60405180910390fd5b80915050919050565b8173ffffffffffffffffffffffffffffffffffffffff166002600083815260200190815260200160002060009054906101000a900473ffffffffffffffffffffffffffffffffffffffff1673ffffffffffffffffffffffffffffffffffffffff161415610719576040517f08c379a000000000000000000000000000000000000000000000000000000000815260040161071090613c15565b60405180910390fd5b3073ffffffffffffffffffffffffffffffffffffffff1663893d20e86040518163ffffffff1660e01b815260040160206040518083038186803b15801561075f57600080fd5b505afa158015610773573d6000803e3d6000fd5b505050506040513d601f19601f820116820180604052506107979190810190612d55565b73ffffffffffffffffffffffffffffffffffffffff163373ffffffffffffffffffffffffffffffffffffffff1614806107de57506107dd6107d782610cf0565b336110b2565b5b61081d576040517f08c379a000000000000000000000000000000000000000000000000000000000815260040161081490613d55565b60405180910390fd5b816003600083815260200190815260200160002060006101000a81548173ffffffffffffffffffffffffffffffffffffffff021916908373ffffffffffffffffffffffffffffffffffffffff160217905550808273ffffffffffffffffffffffffffffffffffffffff1661089083610cf0565b73ffffffffffffffffffffffffffffffffffffffff167f8c5be1e5ebec7d5bd14f71427d1e84f3dd0314c0f7b2291e5b200ac8c7c3b92560405160405180910390a45050565b6000600880549050905090565b6108ed338261169a565b61092c576040517f08c379a000000000000000000000000000000000000000000000000000000000815260040161092390613cd5565b60405180910390fd5b61093783838361172f565b505050565b61097b828260006040519080825280601f01601f1916602001820160405280156109755781602001600182028038833980820191505090505b50610bb3565b5050565b600061098a83610d2d565b82106109cb576040517f08c379a00000000000000000000000000000000000000000000000000000000081526004016109c290613b55565b60405180910390fd5b600660008473ffffffffffffffffffffffffffffffffffffffff1673ffffffffffffffffffffffffffffffffffffffff1681526020019081526020016000208281548110610a1557fe5b9060005260206000200154905092915050565b6000809054906101000a900473ffffffffffffffffffffffffffffffffffffffff1673ffffffffffffffffffffffffffffffffffffffff163373ffffffffffffffffffffffffffffffffffffffff1614610ab7576040517f08c379a0000000000000000000000000000000000000000000000000000000008152600401610aae90613d15565b60405180910390fd5b600060149054906101000a900460ff1615158115151415610b0d576040517f08c379a0000000000000000000000000000000000000000000000000000000008152600401610b0490613cf5565b60405180910390fd5b80600060146101000a81548160ff021916908315150217905550600060149054906101000a900460ff1615610b78577f62e78cea01bee320cd4e420270b5ea74000d11b0c9f74754ebdbfc544b05a25833604051610b6b9190613ab1565b60405180910390a1610bb0565b7f2117a86d7496b6aed0459f1c7ddcff93ed4ab54d2fb577eea08c310cf98fcb4e33604051610ba79190613ab1565b60405180910390a15b50565b505050565b60008060009054906101000a900473ffffffffffffffffffffffffffffffffffffffff1673ffffffffffffffffffffffffffffffffffffffff163373ffffffffffffffffffffffffffffffffffffffff1614610c49576040517f08c379a0000000000000000000000000000000000000000000000000000000008152600401610c4090613d15565b60405180910390fd5b610c538383611753565b610c5c82611774565b6001905092915050565b610c8183838360405180602001604052806000815250610fb4565b505050565b6000610c906108d6565b8210610cd1576040517f08c379a0000000000000000000000000000000000000000000000000000000008152600401610cc890613cb5565b60405180910390fd5b60088281548110610cde57fe5b90600052602060002001549050919050565b60006002600083815260200190815260200160002060009054906101000a900473ffffffffffffffffffffffffffffffffffffffff169050919050565b6000610d76600460008473ffffffffffffffffffffffffffffffffffffffff1673ffffffffffffffffffffffffffffffffffffffff168152602001908152602001600020611892565b9050919050565b60008060009054906101000a900473ffffffffffffffffffffffffffffffffffffffff16905090565b606060108054600181600116156101000203166002900480601f016020809104026020016040519081016040528092919081815260200182805460018160011615610100020316600290048015610e3e5780601f10610e1357610100808354040283529160200191610e3e565b820191906000526020600020905b815481529060010190602001808311610e2157829003601f168201915b5050505050905090565b3373ffffffffffffffffffffffffffffffffffffffff168273ffffffffffffffffffffffffffffffffffffffff161415610eb7576040517f08c379a0000000000000000000000000000000000000000000000000000000008152600401610eae90613d95565b60405180910390fd5b80600560003373ffffffffffffffffffffffffffffffffffffffff1673ffffffffffffffffffffffffffffffffffffffff16815260200190815260200160002060008473ffffffffffffffffffffffffffffffffffffffff1673ffffffffffffffffffffffffffffffffffffffff16815260200190815260200160002060006101000a81548160ff0219169083151502179055508173ffffffffffffffffffffffffffffffffffffffff163373ffffffffffffffffffffffffffffffffffffffff167f17307eab39ab6107e8899845ad3d59bd9653f200f220920489ca2b5937696c3183604051610fa89190613b18565b60405180910390a35050565b610fbf8484846108e3565b610fcb848484846118a0565b61100a576040517f08c379a000000000000000000000000000000000000000000000000000000000815260040161100190613bb5565b60405180910390fd5b50505050565b606060118054600181600116156101000203166002900480601f0160208091040260200160405190810160405280929190818152602001828054600181600116156101000203166002900480156110a85780601f1061107d576101008083540402835291602001916110a8565b820191906000526020600020905b81548152906001019060200180831161108b57829003601f168201915b5050505050905090565b6000600560008473ffffffffffffffffffffffffffffffffffffffff1673ffffffffffffffffffffffffffffffffffffffff16815260200190815260200160002060008373ffffffffffffffffffffffffffffffffffffffff1673ffffffffffffffffffffffffffffffffffffffff16815260200190815260200160002060009054906101000a900460ff16905092915050565b60001515600060149054906101000a900460ff1615151461119c576040517f08c379a000000000000000000000000000000000000000000000000000000000815260040161119390613d35565b60405180910390fd5b60008260000151600001518360200151600001518460400151600001518560600151600001518660800151600001518760a00151600001518860c00151600001518960e0015160000151896040516020016111ff999897969594939291906139f3565b604051602081830303815290604052805190602001209050600073ffffffffffffffffffffffffffffffffffffffff1660156000837bffffffffffffffffffffffffffffffffffffffffffffffffffffffff19167bffffffffffffffffffffffffffffffffffffffffffffffffffffffff1916815260200190815260200160002060010160009054906101000a900473ffffffffffffffffffffffffffffffffffffffff1673ffffffffffffffffffffffffffffffffffffffff16146112fa576040517f08c379a00000000000000000000000000000000000000000000000000000000081526004016112f190613c75565b60405180910390fd5b601360009054906101000a900473ffffffffffffffffffffffffffffffffffffffff1673ffffffffffffffffffffffffffffffffffffffff1663dee1a35084846040518363ffffffff1660e01b8152600401611357929190613db5565b60206040518083038186803b15801561136f57600080fd5b505afa158015611383573d6000803e3d6000fd5b505050506040513d601f19601f820116820180604052506113a79190810190612f8a565b6113e6576040517f08c379a00000000000000000000000000000000000000000000000000000000081526004016113dd90613c55565b60405180910390fd5b6113f18585836119b7565b6113fb8585610bb8565b505050505050565b6000809054906101000a900473ffffffffffffffffffffffffffffffffffffffff1673ffffffffffffffffffffffffffffffffffffffff163373ffffffffffffffffffffffffffffffffffffffff1614611492576040517f08c379a000000000000000000000000000000000000000000000000000000000815260040161148990613d15565b60405180910390fd5b600073ffffffffffffffffffffffffffffffffffffffff168173ffffffffffffffffffffffffffffffffffffffff161415611502576040517f08c379a00000000000000000000000000000000000000000000000000000000081526004016114f990613b75565b60405180910390fd5b806000806101000a81548173ffffffffffffffffffffffffffffffffffffffff021916908373ffffffffffffffffffffffffffffffffffffffff1602179055507f3f3bc0d25569b73b8f83a7aa1967d8934d14a8236ef400ce36406a2d5cd61dd66000809054906101000a900473ffffffffffffffffffffffffffffffffffffffff166040516115929190613a96565b60405180910390a150565b60606115a882611b7e565b6115e7576040517f08c379a00000000000000000000000000000000000000000000000000000000081526004016115de90613d75565b60405180910390fd5b601260008381526020019081526020016000208054600181600116156101000203166002900480601f01602080910402602001604051908101604052809291908181526020018280546001816001161561010002031660029004801561168e5780601f106116635761010080835404028352916020019161168e565b820191906000526020600020905b81548152906001019060200180831161167157829003601f168201915b50505050509050919050565b6000806116a683610cf0565b90508073ffffffffffffffffffffffffffffffffffffffff168473ffffffffffffffffffffffffffffffffffffffff16148061171557508373ffffffffffffffffffffffffffffffffffffffff166116fd846105c5565b73ffffffffffffffffffffffffffffffffffffffff16145b80611726575061172581856110b2565b5b91505092915050565b61173a838383611bf0565b6117448382611e4a565b61174e8282611fe8565b505050565b61175d82826120af565b6117678282611fe8565b6117708161222a565b5050565b61177d81611b7e565b6117bc576040517f08c379a00000000000000000000000000000000000000000000000000000000081526004016117b390613b95565b60405180910390fd5b61186860118054600181600116156101000203166002900480601f0160208091040260200160405190810160405280929190818152602001828054600181600116156101000203166002900480156118555780601f1061182a57610100808354040283529160200191611855565b820191906000526020600020905b81548152906001019060200180831161183857829003601f168201915b505050505061186383612276565b6123a3565b60126000838152602001908152602001600020908051906020019061188e929190612890565b5050565b600081600001549050919050565b60006118c18473ffffffffffffffffffffffffffffffffffffffff166123e7565b6118ce57600190506119af565b60008473ffffffffffffffffffffffffffffffffffffffff1663150b7a02338887876040518563ffffffff1660e01b815260040161190f9493929190613acc565b602060405180830381600087803b15801561192957600080fd5b505af115801561193d573d6000803e3d6000fd5b505050506040513d601f19601f8201168201806040525061196191908101906130af565b905063150b7a0260e01b7bffffffffffffffffffffffffffffffffffffffffffffffffffffffff1916817bffffffffffffffffffffffffffffffffffffffffffffffffffffffff1916149150505b949350505050565b6119bf612910565b60405180604001604052808481526020018573ffffffffffffffffffffffffffffffffffffffff1681525090508060156000847bffffffffffffffffffffffffffffffffffffffffffffffffffffffff19167bffffffffffffffffffffffffffffffffffffffffffffffffffffffff191681526020019081526020016000206000820151816000015560208201518160010160006101000a81548173ffffffffffffffffffffffffffffffffffffffff021916908373ffffffffffffffffffffffffffffffffffffffff160217905550905050601481908060018154018082558091505090600182039060005260206000209060020201600090919290919091506000820151816000015560208201518160010160006101000a81548173ffffffffffffffffffffffffffffffffffffffff021916908373ffffffffffffffffffffffffffffffffffffffff160217905550505050817bffffffffffffffffffffffffffffffffffffffffffffffffffffffff1916838573ffffffffffffffffffffffffffffffffffffffff167f3c84595952fd90cc12791561992f9261aebc7bb8b993431fdfbf11b75fc5e77260405160405180910390a450505050565b6000806002600084815260200190815260200160002060009054906101000a900473ffffffffffffffffffffffffffffffffffffffff169050600073ffffffffffffffffffffffffffffffffffffffff168173ffffffffffffffffffffffffffffffffffffffff161415915050919050565b6002600082815260200190815260200160002060009054906101000a900473ffffffffffffffffffffffffffffffffffffffff1673ffffffffffffffffffffffffffffffffffffffff168373ffffffffffffffffffffffffffffffffffffffff1614611c91576040517f08c379a0000000000000000000000000000000000000000000000000000000008152600401611c8890613c95565b60405180910390fd5b600073ffffffffffffffffffffffffffffffffffffffff168273ffffffffffffffffffffffffffffffffffffffff161415611d01576040517f08c379a0000000000000000000000000000000000000000000000000000000008152600401611cf890613bf5565b60405180910390fd5b611d0a81612432565b611d51600460008473ffffffffffffffffffffffffffffffffffffffff1673ffffffffffffffffffffffffffffffffffffffff1681526020019081526020016000206124f0565b611d98600460008573ffffffffffffffffffffffffffffffffffffffff1673ffffffffffffffffffffffffffffffffffffffff168152602001908152602001600020612506565b816002600083815260200190815260200160002060006101000a81548173ffffffffffffffffffffffffffffffffffffffff021916908373ffffffffffffffffffffffffffffffffffffffff160217905550808273ffffffffffffffffffffffffffffffffffffffff168473ffffffffffffffffffffffffffffffffffffffff167fddf252ad1be2c89b69c2b068fc378daa952ba7f163c4a11628f55a4df523b3ef60405160405180910390a4505050565b6000611ea26001600660008673ffffffffffffffffffffffffffffffffffffffff1673ffffffffffffffffffffffffffffffffffffffff1681526020019081526020016000208054905061252990919063ffffffff16565b9050600060076000848152602001908152602001600020549050818114611f8f576000600660008673ffffffffffffffffffffffffffffffffffffffff1673ffffffffffffffffffffffffffffffffffffffff1681526020019081526020016000208381548110611f0f57fe5b9060005260206000200154905080600660008773ffffffffffffffffffffffffffffffffffffffff1673ffffffffffffffffffffffffffffffffffffffff1681526020019081526020016000208381548110611f6757fe5b9060005260206000200181905550816007600083815260200190815260200160002081905550505b600660008573ffffffffffffffffffffffffffffffffffffffff1673ffffffffffffffffffffffffffffffffffffffff168152602001908152602001600020805480919060019003611fe19190612940565b5050505050565b600660008373ffffffffffffffffffffffffffffffffffffffff1673ffffffffffffffffffffffffffffffffffffffff168152602001908152602001600020805490506007600083815260200190815260200160002081905550600660008373ffffffffffffffffffffffffffffffffffffffff1673ffffffffffffffffffffffffffffffffffffffff1681526020019081526020016000208190806001815401808255809150509060018203906000526020600020016000909192909190915055505050565b6120b881611b7e565b1580156120f25750600073ffffffffffffffffffffffffffffffffffffffff168273ffffffffffffffffffffffffffffffffffffffff1614155b612131576040517f08c379a000000000000000000000000000000000000000000000000000000000815260040161212890613c35565b60405180910390fd5b816002600083815260200190815260200160002060006101000a81548173ffffffffffffffffffffffffffffffffffffffff021916908373ffffffffffffffffffffffffffffffffffffffff1602179055506121ca600460008473ffffffffffffffffffffffffffffffffffffffff1673ffffffffffffffffffffffffffffffffffffffff1681526020019081526020016000206124f0565b808273ffffffffffffffffffffffffffffffffffffffff16600073ffffffffffffffffffffffffffffffffffffffff167fddf252ad1be2c89b69c2b068fc378daa952ba7f163c4a11628f55a4df523b3ef60405160405180910390a45050565b6008805490506009600083815260200190815260200160002081905550600881908060018154018082558091505090600182039060005260206000200160009091929091909150555050565b606060008214156122be576040518060400160405280600181526020017f3000000000000000000000000000000000000000000000000000000000000000815250905061239e565b600082905060005b600082146122e8578080600101915050600a82816122e057fe5b0491506122c6565b6060816040519080825280601f01601f19166020018201604052801561231d5781602001600182028038833980820191505090505b50905060006001830390505b6000861461239657600a868161233b57fe5b0660300160f81b8282806001900393508151811061235557fe5b60200101907effffffffffffffffffffffffffffffffffffffffffffffffffffffffffffff1916908160001a905350600a868161238e57fe5b049550612329565b819450505050505b919050565b60606123df8383604051806020016040528060008152506040518060200160405280600081525060405180602001604052806000815250612573565b905092915050565b60008060007fc5d2460186f7233c927e7db2dcc703c0e500b653ca82273b7bfad8045d85a47060001b9050833f915080821415801561242957506000801b8214155b92505050919050565b600073ffffffffffffffffffffffffffffffffffffffff166003600083815260200190815260200160002060009054906101000a900473ffffffffffffffffffffffffffffffffffffffff1673ffffffffffffffffffffffffffffffffffffffff16146124ed5760006003600083815260200190815260200160002060006101000a81548173ffffffffffffffffffffffffffffffffffffffff021916908373ffffffffffffffffffffffffffffffffffffffff1602179055505b50565b6001816000016000828254019250508190555050565b61251e6001826000015461252990919063ffffffff16565b816000018190555050565b600061256b83836040518060400160405280601e81526020017f536166654d6174683a207375627472616374696f6e206f766572666c6f770000815250612835565b905092915050565b6060808690506060869050606086905060608690506060869050606081518351855187518951010101016040519080825280601f01601f1916602001820160405280156125cf5781602001600182028038833980820191505090505b509050606081905060008090506000809050600090505b8851811015612654578881815181106125fb57fe5b602001015160f81c60f81b83838060010194508151811061261857fe5b60200101907effffffffffffffffffffffffffffffffffffffffffffffffffffffffffffff1916908160001a90535080806001019150506125e6565b600090505b87518110156126c75787818151811061266e57fe5b602001015160f81c60f81b83838060010194508151811061268b57fe5b60200101907effffffffffffffffffffffffffffffffffffffffffffffffffffffffffffff1916908160001a9053508080600101915050612659565b600090505b865181101561273a578681815181106126e157fe5b602001015160f81c60f81b8383806001019450815181106126fe57fe5b60200101907effffffffffffffffffffffffffffffffffffffffffffffffffffffffffffff1916908160001a90535080806001019150506126cc565b600090505b85518110156127ad5785818151811061275457fe5b602001015160f81c60f81b83838060010194508151811061277157fe5b60200101907effffffffffffffffffffffffffffffffffffffffffffffffffffffffffffff1916908160001a905350808060010191505061273f565b600090505b8451811015612820578481815181106127c757fe5b602001015160f81c60f81b8383806001019450815181106127e457fe5b60200101907effffffffffffffffffffffffffffffffffffffffffffffffffffffffffffff1916908160001a90535080806001019150506127b2565b82995050505050505050505095945050505050565b600083831115829061287d576040517f08c379a00000000000000000000000000000000000000000000000000000000081526004016128749190613b33565b60405180910390fd5b5060008385039050809150509392505050565b828054600181600116156101000203166002900490600052602060002090601f016020900481019282601f106128d157805160ff19168380011785556128ff565b828001600101855582156128ff579182015b828111156128fe5782518255916020019190600101906128e3565b5b50905061290c919061296c565b5090565b604051806040016040528060008152602001600073ffffffffffffffffffffffffffffffffffffffff1681525090565b81548183558181111561296757818360005260206000209182019101612966919061296c565b5b505050565b61298e91905b8082111561298a576000816000905550600101612972565b5090565b90565b6000813590506129a081614072565b92915050565b6000815190506129b581614072565b92915050565b600082601f8301126129cc57600080fd5b60026129df6129da82613e28565b613dfb565b915081838560208402820111156129f557600080fd5b60005b83811015612a255781612a0b8882612d17565b8452602084019350602083019250506001810190506129f8565b5050505092915050565b600082601f830112612a4057600080fd5b6002612a53612a4e82613e4a565b613dfb565b91508183856020840282011115612a6957600080fd5b60005b83811015612a995781612a7f8882612d17565b845260208401935060208301925050600181019050612a6c565b5050505092915050565b600081359050612ab281614089565b92915050565b600081519050612ac781614089565b92915050565b600081359050612adc816140a0565b92915050565b600081359050612af1816140b7565b92915050565b600081519050612b06816140b7565b92915050565b600082601f830112612b1d57600080fd5b8135612b30612b2b82613e6c565b613dfb565b91508082526020830160208301858383011115612b4c57600080fd5b612b57838284614015565b50505092915050565b600082601f830112612b7157600080fd5b8135612b84612b7f82613e98565b613dfb565b91508082526020830160208301858383011115612ba057600080fd5b612bab838284614015565b50505092915050565b600060408284031215612bc657600080fd5b612bd06040613dfb565b90506000612be084828501612d17565b6000830152506020612bf484828501612d17565b60208301525092915050565b600060808284031215612c1257600080fd5b612c1c6040613dfb565b90506000612c2c848285016129bb565b6000830152506040612c40848285016129bb565b60208301525092915050565b60006102408284031215612c5f57600080fd5b612c6a610100613dfb565b90506000612c7a84828501612bb4565b6000830152506040612c8e84828501612bb4565b6020830152506080612ca284828501612c00565b604083015250610100612cb784828501612bb4565b606083015250610140612ccc84828501612bb4565b608083015250610180612ce184828501612bb4565b60a0830152506101c0612cf684828501612bb4565b60c083015250610200612d0b84828501612bb4565b60e08301525092915050565b600081359050612d26816140ce565b92915050565b600060208284031215612d3e57600080fd5b6000612d4c84828501612991565b91505092915050565b600060208284031215612d6757600080fd5b6000612d75848285016129a6565b91505092915050565b60008060408385031215612d9157600080fd5b6000612d9f85828601612991565b9250506020612db085828601612991565b9150509250929050565b600080600060608486031215612dcf57600080fd5b6000612ddd86828701612991565b9350506020612dee86828701612991565b9250506040612dff86828701612d17565b9150509250925092565b60008060008060808587031215612e1f57600080fd5b6000612e2d87828801612991565b9450506020612e3e87828801612991565b9350506040612e4f87828801612d17565b925050606085013567ffffffffffffffff811115612e6c57600080fd5b612e7887828801612b0c565b91505092959194509250565b60008060408385031215612e9757600080fd5b6000612ea585828601612991565b9250506020612eb685828601612aa3565b9150509250929050565b60008060408385031215612ed357600080fd5b6000612ee185828601612991565b9250506020612ef285828601612d17565b9150509250929050565b6000806000806102c08587031215612f1357600080fd5b6000612f2187828801612991565b9450506020612f3287828801612d17565b9350506040612f4387828801612c4c565b925050610280612f5587828801612a2f565b91505092959194509250565b600060208284031215612f7357600080fd5b6000612f8184828501612aa3565b91505092915050565b600060208284031215612f9c57600080fd5b6000612faa84828501612ab8565b91505092915050565b60008060408385031215612fc657600080fd5b6000612fd485828601612acd565b925050602083013567ffffffffffffffff811115612ff157600080fd5b612ffd85828601612b60565b9150509250929050565b60008060006060848603121561301c57600080fd5b600061302a86828701612acd565b935050602084013567ffffffffffffffff81111561304757600080fd5b61305386828701612b60565b925050604084013567ffffffffffffffff81111561307057600080fd5b61307c86828701612b0c565b9150509250925092565b60006020828403121561309857600080fd5b60006130a684828501612ae2565b91505092915050565b6000602082840312156130c157600080fd5b60006130cf84828501612af7565b91505092915050565b6000602082840312156130ea57600080fd5b60006130f884828501612d17565b91505092915050565b600061310d83836139af565b60208301905092915050565b600061312583836139cd565b60208301905092915050565b61313a81613fdf565b82525050565b61314981613f61565b82525050565b61315881613ee3565b6131628184613f29565b925061316d82613ece565b8060005b8381101561319e5781516131858782613101565b965061319083613f11565b925050600181019050613171565b505050505050565b6131af81613ee3565b6131b98184613f34565b92506131c482613ece565b8060005b838110156131f55781516131dc8782613119565b96506131e783613f11565b9250506001810190506131c8565b505050505050565b61320681613ed8565b6132108184613f1e565b925061321b82613ec4565b8060005b8381101561324c5781516132338782613101565b965061323e83613f04565b92505060018101905061321f565b505050505050565b61325d81613ed8565b6132678184613f34565b925061327282613ec4565b8060005b838110156132a357815161328a8782613119565b965061329583613f04565b925050600181019050613276565b505050505050565b6132b481613f73565b82525050565b60006132c582613eee565b6132cf8185613f3f565b93506132df818560208601614024565b6132e881614061565b840191505092915050565b60006132fe82613ef9565b6133088185613f50565b9350613318818560208601614024565b61332181614061565b840191505092915050565b6000613339601a83613f50565b91507f496e646578206973206d6f7265207468616e2062616c616e63650000000000006000830152602082019050919050565b6000613379601483613f50565b91507f41646472657373206973206e6f742076616c69640000000000000000000000006000830152602082019050919050565b60006133b9602283613f50565b91507f546f6b656e20696420646f6573206e6f7420657869737420696e20736574205560008301527f52490000000000000000000000000000000000000000000000000000000000006020830152604082019050919050565b600061341f601783613f50565b91507f436865636b206f6e2045524337323120206661696c65640000000000000000006000830152602082019050919050565b600061345f601783613f50565b91507f417070726f76616c20646f6573206e6f742065786973740000000000000000006000830152602082019050919050565b600061349f601683613f50565b91507f20546f206164647265737320697320696e76616c6964000000000000000000006000830152602082019050919050565b60006134df601783613f50565b91507f416c72656164792074686520746f6b656e206f776e65720000000000000000006000830152602082019050919050565b600061351f602783613f50565b91507f20546f6b656e20657869737473206f722074686520616464726573732069732060008301527f696e76616c6964000000000000000000000000000000000000000000000000006020830152604082019050919050565b6000613585600f83613f50565b91507f50726f6f6620696e636f727265637400000000000000000000000000000000006000830152602082019050919050565b60006135c5601283613f50565b91507f416c726561647920757365642050726f6f6600000000000000000000000000006000830152602082019050919050565b6000613605602683613f50565b91507f46726f6d2061646472657373206973206e6f74206f776e6572206f662074686560008301527f20746f6b656e00000000000000000000000000000000000000000000000000006020830152604082019050919050565b600061366b601f83613f50565b91507f496e646578206973206d6f7265207468616e20746f74616c20737570706c79006000830152602082019050919050565b60006136ab602083613f50565b91507f4f776e6572206f7220417070726f766564206e6f742073656e64696e672054786000830152602082019050919050565b60006136eb602583613f50565b91507f5061757365207374617475732073656e74206973206578697374696e6720616c60008301527f72656164790000000000000000000000000000000000000000000000000000006020830152604082019050919050565b6000613751601c83613f50565b91507f43616c6c6572206973206e6f7420636f6e7472616374206f776e6572000000006000830152602082019050919050565b6000613791601283613f50565b91507f436f6e74726163742069732070617573656400000000000000000000000000006000830152602082019050919050565b60006137d1601683613f50565b91507f53656e646572206973206e6f7420617070726f766564000000000000000000006000830152602082019050919050565b6000613811601783613f50565b91507f546f6b656e20696420646f6573206e6f742065786973740000000000000000006000830152602082019050919050565b6000613851602283613f50565b91507f53656e6465722069732073616d6520617320617070726f76616c20616464726560008301527f73730000000000000000000000000000000000000000000000000000000000006020830152604082019050919050565b6040820160008201516138c060008501826139af565b5060208201516138d360208501826139af565b50505050565b6080820160008201516138ef60008501826131fd565b50602082015161390260408501826131fd565b50505050565b6102408201600082015161391f60008501826138aa565b50602082015161393260408501826138aa565b50604082015161394560808501826138d9565b5060608201516139596101008501826138aa565b50608082015161396d6101408501826138aa565b5060a08201516139816101808501826138aa565b5060c08201516139956101c08501826138aa565b5060e08201516139a96102008501826138aa565b50505050565b6139b881613fd5565b82525050565b6139c781613fd5565b82525050565b6139d681613fd5565b82525050565b6139ed6139e882613fd5565b614057565b82525050565b60006139ff828c6139dc565b602082019150613a0f828b6139dc565b602082019150613a1f828a613254565b604082019150613a2f82896139dc565b602082019150613a3f82886139dc565b602082019150613a4f82876139dc565b602082019150613a5f82866139dc565b602082019150613a6f82856139dc565b602082019150613a7f82846131a6565b6040820191508190509a9950505050505050505050565b6000602082019050613aab6000830184613140565b92915050565b6000602082019050613ac66000830184613131565b92915050565b6000608082019050613ae16000830187613131565b613aee6020830186613140565b613afb60408301856139be565b8181036060830152613b0d81846132ba565b905095945050505050565b6000602082019050613b2d60008301846132ab565b92915050565b60006020820190508181036000830152613b4d81846132f3565b905092915050565b60006020820190508181036000830152613b6e8161332c565b9050919050565b60006020820190508181036000830152613b8e8161336c565b9050919050565b60006020820190508181036000830152613bae816133ac565b9050919050565b60006020820190508181036000830152613bce81613412565b9050919050565b60006020820190508181036000830152613bee81613452565b9050919050565b60006020820190508181036000830152613c0e81613492565b9050919050565b60006020820190508181036000830152613c2e816134d2565b9050919050565b60006020820190508181036000830152613c4e81613512565b9050919050565b60006020820190508181036000830152613c6e81613578565b9050919050565b60006020820190508181036000830152613c8e816135b8565b9050919050565b60006020820190508181036000830152613cae816135f8565b9050919050565b60006020820190508181036000830152613cce8161365e565b9050919050565b60006020820190508181036000830152613cee8161369e565b9050919050565b60006020820190508181036000830152613d0e816136de565b9050919050565b60006020820190508181036000830152613d2e81613744565b9050919050565b60006020820190508181036000830152613d4e81613784565b9050919050565b60006020820190508181036000830152613d6e816137c4565b9050919050565b60006020820190508181036000830152613d8e81613804565b9050919050565b60006020820190508181036000830152613dae81613844565b9050919050565b600061028082019050613dcb6000830185613908565b613dd961024083018461314f565b9392505050565b6000602082019050613df560008301846139be565b92915050565b6000604051905081810181811067ffffffffffffffff82111715613e1e57600080fd5b8060405250919050565b600067ffffffffffffffff821115613e3f57600080fd5b602082029050919050565b600067ffffffffffffffff821115613e6157600080fd5b602082029050919050565b600067ffffffffffffffff821115613e8357600080fd5b601f19601f8301169050602081019050919050565b600067ffffffffffffffff821115613eaf57600080fd5b601f19601f8301169050602081019050919050565b6000819050919050565b6000819050919050565b600060029050919050565b600060029050919050565b600081519050919050565b600081519050919050565b6000602082019050919050565b6000602082019050919050565b600081905092915050565b600081905092915050565b600081905092915050565b600082825260208201905092915050565b600082825260208201905092915050565b6000613f6c82613fb5565b9050919050565b60008115159050919050565b6000819050919050565b60007fffffffff0000000000000000000000000000000000000000000000000000000082169050919050565b600073ffffffffffffffffffffffffffffffffffffffff82169050919050565b6000819050919050565b6000613fea82613ff1565b9050919050565b6000613ffc82614003565b9050919050565b600061400e82613fb5565b9050919050565b82818337600083830152505050565b60005b83811015614042578082015181840152602081019050614027565b83811115614051576000848401525b50505050565b6000819050919050565b6000601f19601f8301169050919050565b61407b81613f61565b811461408657600080fd5b50565b61409281613f73565b811461409d57600080fd5b50565b6140a981613f7f565b81146140b457600080fd5b50565b6140c081613f89565b81146140cb57600080fd5b50565b6140d781613fd5565b81146140e257600080fd5b5056fea365627a7a72315820cdf9202a3d7f4678dec3d78a4f39bd89732cde5db1f8dcfeac51a90a707c46856c6578706572696d656e74616cf564736f6c6343000510004068747470733a2f2f73332d75732d776573742d322e616d617a6f6e6177732e636f6d2f756461636974792d626c6f636b636861696e2f63617073746f6e652f",
  "source": "pragma solidity >=0.5.0;\r\npragma experimental ABIEncoderV2;\r\n\r\n// TODO define a contract call to the zokrates generated solidity contract <Verifier> or <renamedVerifier>\r\nimport \"./ERC721Mintable.sol\";\r\nimport \"./verifier.sol\";\r\n\r\n\r\n// TODO define another contract named SolnSquareVerifier that inherits from your ERC721Mintable class\r\ncontract SolnSquareVerifier is CustomERC721Token {\r\n    // TODO define a contract call to the zokrates generated solidity contract <Verifier> or <renamedVerifier>\r\n    Verifier verifierContract;\r\n\r\n    constructor(string memory name, string memory symbol, address verifierAddress) \r\n        CustomERC721Token(name, symbol) public{\r\n        verifierContract = Verifier(verifierAddress);\r\n    }\r\n\r\n    // TODO define a solutions struct that can hold an index & an address\r\n    struct solution {\r\n        uint256 tokenId;\r\n        address to;\r\n\r\n    }\r\n\r\n    // TODO define an array of the above struct\r\n    solution[] Solutions;\r\n\r\n    // TODO define a mapping to store unique solutions submitted\r\n    mapping(bytes4 => solution) submittedSolutions;\r\n\r\n    // TODO Create an event to emit when a solution is added\r\n    event AddedToSolutions(address indexed to, uint256 indexed tokenId, bytes4 indexed key);\r\n\r\n    // TODO Create a function to add the solutions to the array and emit the event\r\n    function _addSolutions(address to, uint256 tokenId, bytes4 key)\r\n        internal\r\n    {\r\n        solution memory sol = solution({tokenId : tokenId, to : to});\r\n        submittedSolutions[key] = sol;\r\n        Solutions.push(sol);\r\n        emit AddedToSolutions(to, tokenId, key);\r\n    }\r\n\r\n    // TODO Create a function to mint new NFT only after the solution has been verified\r\n    //  - make sure the solution is unique (has not been used before)\r\n    //  - make sure you handle metadata as well as tokenSupply\r\n    function mintRET(address to, uint256 tokenId, Verifier.Proof memory proof, uint[2] memory input)\r\n        public\r\n        whenNotPaused\r\n    {\r\n        bytes4 key = bytes4(keccak256(abi.encodePacked(proof.a.X, proof.a_p.X, proof.b.X, proof.b_p.X ,\r\n                                        proof.c.X,proof.c_p.X, proof.h.X, proof.k.X , input)));\r\n        require(submittedSolutions[key].to == address(0), \"Already used Proof\");\r\n        require(verifierContract.verifyTx(proof, input), \"Proof incorrect\");\r\n        _addSolutions(to, tokenId, key);\r\n        super.mint(to, tokenId);\r\n    }\r\n}\r\n\r\n\r\n/*interface verifier {\r\n    struct P_C {uint[2] c1; uint[2] c2;}\r\n    struct Proof {uint[2] a; uint[2] b; P_C c; uint[2] d; uint[2] e; uint[2] f; uint[2] g; uint[2] h;}\r\n    function verifyTx(Proof calldata proof, uint[2] calldata input) external view returns (bool r);\r\n}*/\r\n\r\n\r\n\r\n\r\n\r\n\r\n\r\n\r\n\r\n\r\n\r\n\r\n\r\n\r\n\r\n\r\n\r\n\r\n\r\n\r\n\r\n\r\n\r\n",
  "sourcePath": "C:\\Users\\mukes\\OneDrive\\Desktop\\Projects\\capstone\\Blockchain-Capstone\\eth-contracts\\contracts\\SolnSquareVerifier.sol",
  "compiler": {
    "name": "solc",
    "version": "0.5.16+commit.9c3226ce.Emscripten.clang"
  },
  "schemaVersion": "3.4.2",
  "updatedAt": "2021-09-02T13:56:21.230Z",
  "devdoc": {
    "methods": {
      "isApprovedForAll(address,address)": {
        "details": "Tells whether an operator is approved by a given owner",
        "params": {
          "operator": "operator address which you want to query the approval of",
          "owner": "owner address which you want to query the approval of"
        },
        "return": "bool whether the given operator is approved by the given owner"
      },
      "setApprovalForAll(address,bool)": {
        "details": "Sets or unsets the approval of a given operator An operator is allowed to transfer all tokens of the sender on their behalf",
        "params": {
          "approved": "representing the status of the approval to be set",
          "to": "operator address to set the approval"
        }
      },
      "supportsInterface(bytes4)": {
        "details": "implement supportsInterface(bytes4) using a lookup table"
      },
      "tokenByIndex(uint256)": {
        "details": "Gets the token ID at a given index of all the tokens in this contract Reverts if the index is greater or equal to the total number of tokens",
        "params": {
          "index": "uint256 representing the index to be accessed of the tokens list"
        },
        "return": "uint256 token ID at the given index of the tokens list"
      },
      "tokenOfOwnerByIndex(address,uint256)": {
        "details": "Gets the token ID at a given index of the tokens list of the requested owner",
        "params": {
          "index": "uint256 representing the index to be accessed of the requested tokens list",
          "owner": "address owning the tokens list to be accessed"
        },
        "return": "uint256 token ID at the given index of the tokens list owned by the requested address"
      },
      "totalSupply()": {
        "details": "Gets the total amount of tokens stored by the contract",
        "return": "uint256 representing the total amount of tokens"
      }
    }
  },
  "userdoc": {
    "methods": {}
  }
}